:1000000045C0000060C000005EC000005CC0000091
:100010005AC0000058C0000056C0000054C0000084
:1000200052C0000050C00000ADC000004CC0000035
:100030007BC0000048C0000046C0000045C0000072
:1000400042C0000040C000003EC000003CC00000B4
:100050003AC0000038C0000036C0000034C00000C4
:1000600032C0000030C000002EC000002CC00000D4
:100070002AC0000028C0000026C0000024C00000E4
:1000800022C0000020C000001EC0000011241FBEBE
:10009000CFEFD0E1DEBFCDBF11E0A0E0B1E0E6E6FA
:1000A000FDE000E00BBF02C007900D92A437B1073E
:1000B000D9F726E0A4E7B1E001C01D92A533B2074D
:1000C000E1F7FDD44EC69CCF1F920F920FB60F9250
:1000D00011240BB60F922F933F934F935F936F931F
:1000E0007F938F939F93AF93BF93EF93FF9389B3C6
:1000F0008095282F2F7029F06AEE74E0822F90E00F
:10010000F5D4FF91EF91BF91AF919F918F917F9126
:100110006F915F914F913F912F910F900BBE0F9078
:100120000FBE0F901F9018951F920F920FB60F924F
:1001300011240BB60F922F933F934F935F936F93BE
:100140007F938F939F93AF93BF93EF93FF936CE352
:1001500075E080E090E0CAD482B3805882BBFF9102
:10016000EF91BF91AF919F918F917F916F915F912F
:100170004F913F912F910F900BBE0F900FBE0F909C
:100180001F9018951F920F920FB60F9211240BB665
:100190000F922F933F934F935F936F937F938F9320
:1001A0009F93AF93BF93EF93FF931DD0FF91EF9178
:1001B000BF91AF919F918F917F916F915F914F917F
:1001C0003F912F910F900BBE0F900FBE0F901F907D
:1001D000189587B38F6387BB81B3876781BB82B371
:1001E000806482BB089582B3806482BB8091740175
:1001F00090E2899FF0011124EB5CFA4F92B3987F53
:100200008770892B82BB20E00EC0808198B3907CE0
:100210008F73892B88BB82B3806182BB82B38F7E50
:1002200082BB2F5F3196203280F382B3806282BB23
:1002300082B38F7D82BB82B38F7B82BB809174013E
:1002400090E0019687709078992324F40197886F45
:100250009F6F019680937401089530E04AC0832F08
:10026000032E000C990BFC01EE0FFF1F880F991F46
:10027000880F991F880F991FE80FF91FE20FF11DD2
:1002800027FDFA95EE0FFF1FEE0FFF1FE758FE4FF9
:100290008081422F283070F490E2299FF0011124D0
:1002A000EB5CFA4FE30FF11D9081987F8770892BEB
:1002B000808317C0E22FE77090E2E99FF0011124DC
:1002C000EB5CFA4FE30FF11D208190E0880F991F3E
:1002D000880F991F880F991F922F977C8873892BFD
:1002E000808321E0240F01C020E02A300CF4B7CF36
:1002F0003F5F3431CCF308958F929F92AF92BF92BB
:10030000CF92DF92EF92FF92CF93DF9390E05DC0A8
:10031000392F330FE0919904F0919A04EE0FFF1FEB
:10032000EE0FFF1FE40FF11D47FDFA95EE0FFF1FC3
:10033000EE0FFF1FEC5FFE4FC080D180E280F380A4
:100340004601570104C0B594A794979487943A95B1
:10035000D2F7382D3370C62F062E000CDD0BC30FDD
:10036000D11DE92F092E000CFF0B3196EE0F04C0B2
:10037000F594E794D794C794EA95D2F73C2D33705F
:10038000E82F082E000CFF0BDF01A30FB11DFE01AB
:10039000EE0FFF1FCC0FDD1FCC0FDD1FCC0FDD1FBD
:1003A000EC0FFD1FEA0FFB1FEE0FFF1FEE0FFF1FED
:1003B000E758FE4FC22E022E000CDD08EE08FF08A3
:1003C000C082D182E282F3829E5F98300CF4A0CF8B
:1003D000DF91CF91FF90EF90DF90CF90BF90AF90E3
:1003E0009F908F900895CF92DF92EF92FF9220E03E
:1003F0004091A1046091A5048091A9047DDF209122
:1004000099042F5F4091AD043091AE049091AF04F8
:100410008091B0044093A1043093A2049093A3046C
:100420008093A4046091B104862F062E000C990BD2
:10043000AA0BBB0B8093A5049093A604A093A704DA
:10044000B093A8048091B204C82E082E000CDD08D9
:10045000EE08FF08C092A904D092AA04E092AB046F
:10046000F092AC0449DFFF90EF90DF90CF900895B9
:100470008F929F92AF92BF92DF92EF92FF920F9373
:100480001F93CF93DF93C62F660FDD0BE42E440F2F
:10049000FF08E0919904F0919A04EE0FFF1FEE0F10
:1004A000FF1FEE0DFF1DEE0FFF1FEE0FFF1FEC5F96
:1004B000FE4F4081518162817381032E32E1759537
:1004C0006795579547953A95D1F7302D43709E0122
:1004D000240F311D243131050CF09DC0D82E20E0B1
:1004E0004091A1046091A5048091A90405DF1092B8
:1004F0009D0410929E0410929F041092A00440E06C
:1005000050E0BA016FC0E0919904F0919A04EE0FA7
:10051000FF1FEE0FFF1FEE0DFF1DEE0FFF1FEE0F73
:10052000FF1FEC5FFE4F0081118122813381842FF8
:10053000880F4801590104C0B594A79497948794F3
:100540008A95D2F7D501C40183705E01A80EB11C53
:10055000C5014A015B01EFEF8E1A9E0AAE0ABE0A80
:10056000880C04C035952795179507958A94D2F77E
:100570000370002E000C110B0D0D111DD7FC1A95E8
:10058000FC01EE0FFF1F880F991F880F991F880F1E
:10059000991FE80FF91FE00FF11FEE0FFF1FEE0F7D
:1005A000FF1FE758FE4F80819181A281B381892B83
:1005B0008A2B8B2B99F080919D0490919E04A091A1
:1005C0009F04B091A0040196A11DB11D80939D04CC
:1005D00090939E04A0939F04B093A0044E5F5F4F3E
:1005E0006F4F7F4F48305105610571050CF48BCF7B
:1005F000209199042F5F4091A1046091A5048091FE
:10060000A9047ADE60919D0470919E0480919F04FC
:100610009091A00404C061E070E080E090E0DF9180
:10062000CF911F910F91FF90EF90DF90BF90AF900F
:100630009F908F9008954091AD045091AE046091C9
:10064000AF047091B0044F5F5F4F6F4F7F4F4370A7
:10065000552766277078772364F441505109610962
:1006600071094C6F5F6F6F6F7F6F4F5F5F4F6F4FA1
:100670007F4F942F4093AD045093AE046093AF042A
:100680007093B00403C081508093B2048091B2048F
:10069000492FE0919904F0919A04EE0FFF1FEE0F9D
:1006A000FF1FE90FF11D97FDFA95EE0FFF1FEE0FEB
:1006B000FF1FEC5FFE4F22812370022E000C330BD4
:1006C000280F311D87FD3A952A303105E4F66091F7
:1006D000B104CEDE672B682B692BA1F08091A904B1
:1006E0008093B2048091A1049091A204A091A304EC
:1006F000B091A4048093AD049093AE04A093AF0492
:10070000B093B004089583B7886083BF8CE981BF3C
:1007100087B7826087BF83B7876083BF08958EB530
:1007200088608EBD8FE492E19BBD8ABD87B78061F2
:1007300087BF8EB585608EBD089587B7806487BFFB
:1007400085B5846085BD08958BB38F608BBB8AB3FC
:100750008F608ABB0895FF920F931F93CF93DF930F
:10076000F090B104DF2D82C081E090E0A0E0B0E025
:1007700080939D0490939E04A0939F04B093A00443
:10078000C0E02CC0C801880F991F880F991F880FDF
:10079000991FF801EE0FFF1FE80FF91FEC0FF11D75
:1007A000C7FDFA95EE0FFF1FEE0FFF1FE758FE4F34
:1007B000608171818281938120919D0430919E049A
:1007C00040919F045091A004E4D160939D047093E4
:1007D0009E0480939F049093A004CF5FCA3094F24C
:1007E00080919D0490919E04A0919F04B091A004DB
:1007F000892B8A2B8B2BC9F12FEF2D0F1AC0822F3B
:10080000022E000C990B38E2389FF001399FF00D51
:100810001124E758FE4F0196389FD001399FB00D43
:100820001124A758BE4F88E201900D928A95E1F7F6
:100830002150121624F38AE0E9E7F1E0DF011D926E
:100840008A95E9F78091750190917601A0917701E1
:10085000B09178010196A11DB11D8093750190930F
:100860007601A0937701B0937801DF5F0D2F0D2EF5
:10087000000C110B8091AD04E0919904F0919A0461
:10088000EE0FFF1FEE0FFF1FE80FF11D87FDFA951A
:10089000EE0FFF1FEE0FFF1FEC5FFE4F8081918177
:1008A000A281B381072E72E1B595A795979587959B
:1008B0007A95D1F7702D8370082E000C990B8F0D4F
:1008C000911DF7FC9A95801791070CF04DCFDF91A1
:1008D000CF911F910F91FF900895F1D19C0110923B
:1008E000A5041092A6041092A7041092A8041092D6
:1008F000B10467E070E05CD1AC01092E000C660B1E
:10090000770B4093990450939A0460939B047093DF
:100910009C04A90143705078552334F44150510987
:100920004C6F5F6F4F5F5F4F052E000C660B770BB0
:100930004093A1045093A2046093A3047093A40471
:100940004093AD045093AE046093AF047093B00431
:10095000FC01EE0FFF1FEE0FFF1FE40FF11D47FD1F
:10096000FA95EE0FFF1FEE0FFF1FEC5FFE4F828127
:1009700083706AE070E0681B7109C90119D1092E02
:10098000000CAA0BBB0B8093A9049093AA04A0931C
:10099000AB04B093AC048093B204089506C0809178
:1009A000B1048F5F8093B1041EDD6091B1046F5F6D
:1009B0004091AD048091B2045BDD672B682B692BFD
:1009C00071F3C9DE8ACF0895BFDE03DC9CDEA7DEAB
:1009D000B4CE0895CF93C82F81FF02C0DFDF02C0DD
:1009E00080FD29DEC2FF13C08091B20418167CF48A
:1009F0004091AD046091B10481503ADD672B682BC2
:100A0000692B29F48091B20481508093B204C3FF12
:100A10002FC08091B2044091AD04E0919904F0910F
:100A20009A04EE0FFF1FEE0FFF1FE40FF11D47FDAD
:100A3000FA95EE0FFF1FEE0FFF1FEC5FFE4F2281B6
:100A40002370022E000C330B280F311D87FD3A95C1
:100A5000293031056CF46091B1048F5F09DD672B9B
:100A6000682B692B29F48091B2048F5F8093B204C4
:100A7000BADCF3DBCF9108956091B1046F5F4091D0
:100A8000AD048091B204F4DC672B682B692B81F0F4
:100A90008091B104811109C098E088E10FB6F89403
:100AA000A89581BD0FBE91BDFFCF55DE16CF08952D
:100AB0008091B1048F5F8093B10495CC089584DF59
:100AC00081B3806881BB09DF789408D08111FDCFA4
:100AD00057D0FB013097C9F30995F7CF81E02091FA
:100AE000B4049091B304291380E008952091B404D4
:100AF00030E04091B30450E04F5F5F4F4F7150784A
:100B0000552334F441505109406E5F6F4F5F5F4F82
:100B10002417350781F04093B304E42FF0E0EE0F83
:100B2000FF1FEE0FFF1FEB54FB4F60837183828327
:100B3000938381E0089580E008958091B4049091BA
:100B4000B304891304C060E070E0CB01089590E025
:100B500001968F719078992324F40197806E9F6F8E
:100B600001968093B404E82FF0E0EE0FFF1FEE0F24
:100B7000FF1FEB54FB4F6081718182819381089547
:100B8000F89421E002C0D9DF20E02111FCCF789455
:100B90000895DB018F939F931ED0BF91AF91A29FC9
:100BA000800D911DA39F900DB29F900D112408956B
:100BB00097FB072E16F4009406D077FD08D015D0C9
:100BC00007FC05D03EF4909581959F4F0895709550
:100BD00061957F4F08951DD0A59F900DB49F900DF6
:100BE000A49F800D911D11240895AA1BBB1B51E1E8
:100BF00007C0AA1FBB1FA617B70710F0A61BB70B8D
:100C0000881F991F5A95A9F780959095BC01CD0131
:100C10000895A29FB001B39FC001A39F700D811DD5
:100C20001124911DB29F700D811D1124911D0895F5
:100C30008F929F92AF92BF92CF92DF92EF92FF92EC
:100C4000CF93DF93EC01688179818A819B81611563
:100C500071058105910521F464E279ED8BE597E05A
:100C60002DE133EF41E050E038D049015A019B01BA
:100C7000AC01A7EAB1E4AFDF6B017C01ACEEB4EFED
:100C8000A501940148D0DC01CB018C0D9D1DAE1D4A
:100C9000BF1DB7FF03C00197A109B048888399839E
:100CA000AA83BB839F77DF91CF91FF90EF90DF9076
:100CB000CF90BF90AF909F908F900895B9CF80E074
:100CC00091E0B6CFA0E0B0E08093000190930101E5
:100CD000A0930201B09303010895052E97FB16F42B
:100CE00000940FD057FD05D01AD007FC02D046F46F
:100CF00008C050954095309521953F4F4F4F5F4F1D
:100D0000089590958095709561957F4F8F4F9F4F77
:100D10000895B7FF60CF5FDF821B930B0895A1E2B8
:100D20001A2EAA1BBB1BFD010DC0AA1FBB1FEE1F65
:100D3000FF1FA217B307E407F50720F0A21BB30BB0
:100D4000E40BF50B661F771F881F991F1A9469F72C
:100D500060957095809590959B01AC01BD01CF0188
:060D60000895F894FFCF96
:100D66000100000040950600542109004095060048
:100D760054210900518406001065090051840600BB
:100D8600106509004051050040510500405105001D
:100D9600405105005426090010950600402109001F
:100DA60040980600514906001052090040580600B6
:100DB6005416090040C8030010320C0040C8030056
:100DC60010320C0010620900401806004065090048
:040DD6005189060039
:00000001FF
