:1000000045C1000060C100005EC100005CC100008D
:100010005AC1000058C1000056C1000054C1000080
:1000200052C1000025C20000FCC100004CC100000C
:100030004AC1000048C1000046C1000044C10000A0
:10004000C9C1000040C100003EC100003CC1000029
:100050003AC1000038C1000036C1000034C10000C0
:1000600032C1000030C100002EC100002CC10000D0
:100070002AC1000028C1000026C1000024C10000E0
:1000800022C1000020C100001EC1000000000000CD
:100090000000000000000000000000000000000060
:1000A000000000003838011919180007000000018D
:1000B0001800000738380001180000070000000190
:1000C0001800000738380001180000070000000081
:1000D000000000003030022A2A28000630000228E2
:1000E000000200003000022A2A280000300002002E
:1000F0000228000030300228282A000600000000F4
:1001000000000000000000000000000000000000EF
:1001100000000000000000000000000000000000DF
:1001200000000000000000000000000000000000CF
:10013000000000000000100000000030000010115E
:100140003900003003232017393938352B23282F65
:100150002F0F0D350C26162E26220A090C0C14150D
:10016000223A3B3B2929291525391B1B3B2B2125ED
:1001700009111F1F1B1B270A091517241F1F270AF8
:100180001A1D1524363636361A1D24243F3F3F3FAC
:100190003F3F3F3F3F0939093F0F090F3F090F0F0D
:1001A0003F093F393F093F093F090F093F093F090F
:1001B0003F0939393F0939093F090F093F3F3F3F9F
:1001C0003F3F3F3F0F090F3F090F093F093F393FAD
:1001D000093F390F090F093F090F093F093F393F0F
:1001E000093F093F0F090F3F0F393F0F3F3F3F3F87
:1001F0003F3F3F3F00000000000000000000000003
:1002000000000000000000000000000000000000EE
:1002100000000000000000000000000000000000DE
:1002200000000000000000000000000000000000CE
:1002300000000000000000000000000000000000BE
:1002400000000000000000000000000000000000AE
:10025000000000000000000000000000000000009E
:10026000000000000000000000000000000000008E
:10027000000000000000000000000000000000007E
:1002800000000000000000000000000011241FBE5C
:10029000CFEFD0E1DEBFCDBF11E0A0E0B1E0E6EAF4
:1002A000F2E100E00BBF02C007900D92A838B10741
:1002B000D9F724E0A8E8B1E001C01D92AB36B2073F
:1002C000E1F705D3EEC79CCEEF92FF920F931F93F9
:1002D000CF93DF93D82FF62E022FE82EE40E162FA1
:1002E000140F0BC0402F6D2F8FE08C1B0ED1CF5FF2
:1002F00001C0CF2DC117B0F3DF5FDE15D0F3DF9162
:10030000CF911F910F91FF90EF900895CF92DF92C0
:10031000EF92FF920F931F93CF93DF93C82ED62EA9
:10032000122FE42FF0E0EE0FFF1FEC5FFE4FE08096
:10033000F180D0E015C0E0FE0BC0212F402F6D2DC5
:10034000C09F600D11248C2DD09F800D1124BCDF27
:10035000F694E794CF5F01C0C0E0C33060F3DF5F85
:10036000D530D0F3DF91CF911F910F91FF90EF9097
:10037000DF90CF900895EF92FF920F931F93CF934A
:10038000DF93FC0100E01DC07F018FEFE81AF80A3F
:10039000C4914C2F47701FE0602F812F8D1BB5D06B
:1003A0004C2F46954695469588E08D0F602F181B7B
:1003B000812FABD0DF5FF70101C0D0E0D83020F350
:1003C0000F5F0032D0F3DF91CF911F910F91FF901B
:1003D000EF9008951F920F920FB60F9211240BB653
:1003E0000F922F933F934F935F936F937F938F93CE
:1003F0009F93AF93BF93EF93FF932BD6FF91EF9112
:10040000BF91AF919F918F917F916F915F914F912C
:100410003F912F910F900BBE0F900FBE0F901F902A
:1004200018951F920F920FB60F9211240BB60F92D0
:100430002F933F934F935F936F937F938F939F93EC
:10044000AF93BF93EF93FF93B8D0FF91EF91BF911C
:10045000AF919F918F917F916F915F914F913F915C
:100460002F910F900BBE0F900FBE0F901F901895FD
:100470001F920F920FB60F9211240BB60F922F936B
:100480003F934F935F936F937F938F939F93AF931C
:10049000BF93EF93FF93D4D0FF91EF91BF91AF91B2
:1004A0009F918F917F916F915F914F913F912F918C
:1004B0000F900BBE0F900FBE0F901F9018958AB330
:1004C0008F638ABB84B3876784BB85B3806485BB35
:1004D00008959091890181E0892780938901089589
:1004E000A0918901EA2FF0E0FE2FEE27E657FE4F9C
:1004F00081E0A827B0E0BA2FAA27A657BE4F80E018
:1005000001900D928A95E1F708958830F8F4E09112
:10051000890191E0E927F0E0EE0FFF1FEE0FFF1FCA
:10052000EE0FFF1FE80FF11DEE0FFF1FE295F29592
:10053000F07FFE27E07FFE27E657FE4FE60FF11D16
:100540008081887F4770482B40830895E09189011E
:1005500091E0E927F0E08770EE0FFF1FEE0FFF1F1D
:10056000EE0FFF1FE80FF11DEE0FFF1FE295F29552
:10057000F07FFE27E07FFE27E657FE4FE60FF11DD6
:10058000808150E0440F551F440F551F440F551FE5
:10059000877C4873482B408308952091890191E01E
:1005A000292730E0322F2227682F70E040E051E009
:1005B000C90186579E4F20C60895E0918901F0E059
:1005C00080918801EE0FFF1FEE0FFF1FEE0FFF1F40
:1005D000E80FF11DEE0FFF1FE295F295F07FFE2769
:1005E000E07FFE27E657FE4F20E00EC080819BB3E0
:1005F000907C8F73892B8BBB85B3806185BB85B362
:100600008F7E85BB2F5F3196203280F385B3806467
:1006100085BB85B3806285BB85B38F7D85BB8091AB
:10062000880195B3987F8770892B85BB85B38F7BB5
:1006300085BB809188018F5F8770809388010895C2
:1006400085B3806485BB08958F3F11F483BD089501
:10065000823018F481E083BD089583BD089581B38D
:10066000807F81BB82B38F6082BB29DF87B78064C4
:1006700087BF85B5836085BD8AE283BD87B7806803
:1006800087BF1CC50895CF93DF93D82FC0E006C065
:1006900046E060E08FE08C1B38DFCF5FCD17C0F302
:1006A00006C040E060E08FE08C1B2FDFCF5FC031E1
:1006B000C0F3DF91CF9108958F929F92AF92BF9236
:1006C000CF92DF92EF92FF92CF938CE890E053DECF
:1006D00080918A03D8DFFDDE03DF812C912C540149
:1006E000C0B3C095C0FF05C083B58F3F11F08F5FC9
:1006F000ABDFC1FF05C083B5823010F08150A4DFAD
:10070000C2FF1BC0E2D46B017C01DC01CB01881964
:100710009909AA09BB0986399105A105B10568F0B7
:1007200080918A0390E0019661E170E0DAD48093D1
:100730008A03A9DFCEDE46015701C3FD07C08FE360
:100740009CE90197F1F700C00000CACF60918A03CD
:100750002FEE2603B0011124645D7E4F072E000C9E
:10076000880B990BCF91FF90EF90DF90CF90BF90C7
:10077000AF909F908F9008950F93CF93C82F13C081
:1007800080E00BDF02E027E04C2F65E08BE0BEDD70
:10079000A0DE2FEF83ED90E3215080409040E1F701
:1007A00000C00000C150C111EBCFCF910F9108954F
:1007B0008CE891E0E0DD83E1F9D28BCE0895F8DF9B
:1007C0002FEF89E698E1215080409040E1F700C08A
:1007D000000080B390E0809590958F709927892BC9
:1007E000C1F308954F925F926F927F928F929F9282
:1007F000AF92BF92CF92DF92EF92FF92CF93DF93AF
:1008000000D000D0CDB7DEB760D4CB0112D42FEF2B
:1008100039E648E1215030404040E1F700C0000097
:100820004BDF2B013C0183E0A7DF4FD49B01AC01E0
:100830002F5031094109510929833A834B835C8345
:100840004B015C0184189508A608B7083ED46B01DB
:100850007C01DC01CB0129813A814B815C81821BC7
:10086000930BA40BB50B0F97A105B10560F0215FA9
:100870003F4F4F4F5F4F29833A834B835C8380B355
:1008800080958F701ED3C818D908EA08FB08C414D5
:10089000D504E604F704D0F2840C951CA61CB71C02
:1008A000AED38111D3CF8BDF0F900F900F900F90AD
:1008B000DF91CF91FF90EF90DF90CF90BF90AF90FE
:1008C0009F908F907F906F905F904F900895C7DEBC
:1008D000789488DFFECFCF92DF92EF92FF920F9352
:1008E0001F93522F90E04DC0792F770FE0915E0457
:1008F000F0E0EE0FFF1FEE0FFF1FE40FF11D47FDAD
:10090000FA95EE0FFF1FEE0FFF1FE85EFE4F00810E
:100910001181228133816801790104C0F694E79442
:10092000D794C7947A95D2F77C2D7370E62F062E54
:10093000000CFF0BE70FF11DA92F092E000CBB0BBC
:100940001196AA0F04C03695279517950795AA9575
:10095000D2F70370282F082E000C330B200F311D07
:10096000DF01AA0FBB1FEE0FFF1FEE0FFF1FEE0FE1
:10097000FF1FEA0FFB1FEC56FC4FE20FF31F5083E3
:100980009E5F98300CF4B0CF1F910F91FF90EF90C5
:10099000DF90CF90089520E040915F046091600463
:1009A0008091610498DF20915E042F5F4091620482
:1009B00040935F04609163046093600480916404D9
:1009C0008093610488CF08958F929F92AF92BF92D7
:1009D000DF92EF92FF920F931F93CF93DF93C62F77
:1009E000660FDD0BE42E440FFF08E0915E04F0E09B
:1009F000EE0FFF1FEE0FFF1FEE0DFF1DEE0FFF1F8F
:100A0000EE0FFF1FE85EFE4F4081518162817381CE
:100A1000032E32E176956795579547953A95D1F72C
:100A2000302D43709E01240F311D243131050CF00F
:100A300069C0D82E20E040915F04609160048091ED
:100A4000610449DF40E04CC0E0915E04F0E0EE0F4D
:100A5000FF1FEE0FFF1FEE0DFF1DEE0FFF1FEE0F2E
:100A6000FF1FE85EFE4F0081118122813381842FB8
:100A7000880F4801590104C0B694A79497948794AD
:100A80008A95D2F7D501C40183705E01A80EB11C0E
:100A9000C501642F70E06F5F7F4F660F04C036950D
:100AA0002795179507956A95D2F70370002E000CCD
:100AB000110B0D0D111DD7FC1A95F501EE0FFF1F3F
:100AC000880F991F880F991F880F991FE80FF91F2A
:100AD000EC56FC4FE00FF11F8081811106C04E5F84
:100AE000483008F4B1CFC0E001C0C1E020915E04FD
:100AF0002F5F40915F046091600480916104EBDEA0
:100B00008C2F01C081E0DF91CF911F910F91FF9059
:100B1000EF90DF90BF90AF909F908F9008958430BA
:100B200071F48091620490E0039683709078992329
:100B300024F401978C6F9F6F0196982F0DC08091C0
:100B4000620490E0019683709078992324F40197D1
:100B50008C6F9F6F0196982F9093620403C0815011
:100B60008093640480916404492FE0915E04F0E076
:100B7000EE0FFF1FEE0FFF1FE90FF11D97FDFA9516
:100B8000EE0FFF1FEE0FFF1FE85EFE4F2281237066
:100B9000022E000C330B280F311D2A303105FCF6D4
:100BA0006091630411DF882341F080916104809398
:100BB000640480915F0480936204089582FF12C0F0
:100BC000809164048823C1F14091620460916304C0
:100BD0008150FADE811130C080916404815080938D
:100BE000640408958091640440916204E0915E047D
:100BF000F0E0EE0FFF1FEE0FFF1FE40FF11D47FDAA
:100C0000FA95EE0FFF1FEE0FFF1FE85EFE4F2281E9
:100C10002370022E000C330B280F311D29303105B3
:100C20005CF4609163048F5FCFDE811105C0809119
:100C300064048F5F80936404089530916304232FCC
:100C40004DC0CB01880F991F880F991F880F991FDE
:100C5000FB01EE0FFF1FE80FF91FEC56FC4FE40FEE
:100C6000F11D80818823C9F14F5F01C040E04A3007
:100C700040F34FEF420F26C0A42F042E000CBB0BF5
:100C8000FD01EE0FFF1FCD01880F991F880F991FDF
:100C9000880F991FE80FF91FEC56FC4F1196CD01F4
:100CA000880F991FAA0FBB1FAA0FBB1FAA0FBB1F3C
:100CB000A80FB91FAC56BC4F8AE001900D928A95DF
:100CC000E1F741501416C4F280915C0490915D04E8
:100CD000019690935D0480935C042F5F622F70E017
:100CE00080916204E0915E04F0E0EE0FFF1FEE0FD2
:100CF000FF1FE80FF11D87FDFA95EE0FFF1FEE0FA6
:100D0000FF1FE85EFE4F80819181A281B381072E93
:100D100072E1B695A795979587957A95D1F7702D3D
:100D20008370082E000C990B830F911D861797076F
:100D30000CF09CCF0895CF93DF9350D2EC0110922A
:100D400060041092630467E070E0CBD180935E048E
:100D50009E0123703078332334F4215031092C6FF5
:100D60003F6F2F5F3F4F20935F0420936204E82F73
:100D7000F0E0EE0FFF1FEE0FFF1FE20FF11D27FD4A
:100D8000FA95EE0FFF1FEE0FFF1FE85EFE4F828108
:100D900083706AE070E0681B7109CE01A2D1809374
:100DA000610480936404DF91CF910895EF92FF92E4
:100DB0000F93CF93DF93D82FE0905C04F0905D0405
:100DC000C0E02EC09701ADECBCEC9ED19695879506
:100DD0009695879596958795AC01440F551F880F7A
:100DE000991F880F991F880F991F840F951F281B23
:100DF000390BC9019C2F990F990F6DE0691B01E018
:100E000021E0482F8D2F82DA9701ADECBCEC7CD12C
:100E10007C01F694E794F694E794F694E794CF5F18
:100E2000C43080F2DF91CF910F91FF90EF90089541
:100E3000CF93DF9380E0B1DBD2E00BC0CFE0CD1BDE
:100E400047E062E08C2F61DB47E067E18C2F5DDBE0
:100E5000DF5FDE3098F3C2E009C047E06C2F8DE021
:100E600054DB47E06C2F82E050DBCF5FC831A8F342
:100E7000D0E01FC08D2F90E0FC01EE0FFF1F880F08
:100E8000991F880F991F880F991FE80FF91FEC56BB
:100E9000FC4FEC0FF11D408193E09C0F63E06D0F60
:100EA0008FE0891B32DBCF5F01C0C0E0CA3010F396
:100EB000DF5FD431D0F389E179DF0BDBDF91CF91B4
:100EC00008958F929F92AF92BF92CF92DF92EF924E
:100ED000FF921F93CF93DF93182F8C708C3009F4FF
:100EE000137F8091930390E080959095C12FD0E07F
:100EF0008C239D238C709927892BC9F08CE291E07B
:100F0000A0E0B0E080938F0390939003A0939103AF
:100F1000B0939203DAD060938B0370938C03809329
:100F20008D0390938E03812F49DE21E03EC0812FF7
:100F30008C70C1F1CAD080908B0390908C03A090EC
:100F40008D03B0908E03DC01CB0188199909AA09A1
:100F5000BB09C0908F03D0909003E0909103F09074
:100F600092038C159D05AE05BF05F0F0C80CD91C89
:100F7000EA1CFB1CC0928B03D0928C03E0928D0381
:100F8000F0928E038CE390E0A0E0B0E080938F03BA
:100F900090939003A0939103B0939203812F0EDE60
:100FA00021E003C020E001C020E08091930390E0A5
:100FB000809590958C239D2380FF03C088E0AFDD52
:100FC00021E08091930390E0809590958C239D2360
:100FD00081FF03C084E0A3DD21E0222311F0DBDCEC
:100FE00027DF10939303DF91CF911F91FF90EF9034
:100FF000DF90CF90BF90AF909F908F9008956091B9
:1010000063046F5F4091620480916404DDDC882397
:1010100039F080916304882359F00FDE8CDE06C01E
:10102000809163048F5F80936304B5DC01DF81E00E
:101030000895D7D088ECE4E9F3E0DF011D928A95AA
:10104000E9F779DE10925D0410925C04109293032C
:101050000895CF92DF92EF92FF92C0906704D090F4
:101060006804E0906904F0906A042091650430916E
:101070006604B701A6014F5F5F4F6F4F7F4FC901F5
:101080004896883EE3E09E0740F0B701A6014E5F18
:101090005F4F6F4F7F4F885E93404093670450933C
:1010A00068046093690470936A0490936604809363
:1010B0006504FF90EF90DF90CF90089583B7846030
:1010C00083BF87B7816087BF08952FB7F894609179
:1010D0006704709168048091690490916A042FBF3D
:1010E000089597FB072E16F4009406D077FD08D0DC
:1010F0001AD007FC05D03EF4909581959F4F089536
:10110000709561957F4F0895A29FB001B39FC00174
:10111000A39F700D811D1124911DB29F700D811D23
:101120001124911D0895AA1BBB1B51E107C0AA1FE2
:10113000BB1FA617B70710F0A61BB70B881F991F78
:101140005A95A9F780959095BC01CD0108958F928D
:101150009F92AF92BF92CF92DF92EF92FF92CF9386
:10116000DF93EC01688179818A819B81611571052A
:101170008105910521F464E279ED8BE597E02DE19D
:1011800033EF41E050E03FD049015A019B01AC01EF
:10119000A7EAB1E454D06B017C01ACEEB4EFA50139
:1011A000940159D0DC01CB018C0D9D1DAE1DBF1DDE
:1011B000B7FF03C00197A109B04888839983AA8328
:1011C000BB839F77DF91CF91FF90EF90DF90CF901F
:1011D000BF90AF909F908F900895B9CF80E091E03D
:1011E000B6CFA0E0B0E08093000190930101A093FE
:1011F0000201B09303010895DC0101C06D934150D9
:101200005040E0F70895052E97FB16F400940FD098
:1012100057FD05D024D007FC02D046F408C05095F5
:101220004095309521953F4F4F4F5F4F08959095D2
:101230008095709561957F4F8F4F9F4F089564DF24
:10124000A59F900DB49F900DA49F800D911D11241A
:101250000895B7FFF4CFF3DF821B930B0895A1E24B
:101260001A2EAA1BBB1BFD010DC0AA1FBB1FEE1F20
:10127000FF1FA217B307E407F50720F0A21BB30B6B
:10128000E40BF50B661F771F881F991F1A9469F7E7
:1012900060957095809590959B01AC01BD01CF0143
:0612A0000895F894FFCF51
:1012A600010000006F7B9224E773E779ED49CF795F
:1012B600CF7B2F49EF7BEF7940950600542109003B
:1012C6004095060054210900518406001065090066
:1012D6005184060010650900405105004051050083
:1012E600405105004051050054260900109506009E
:1012F6004021090040980600514906001052090095
:10130600405806005416090040C8030010320C006D
:1013160040C8030010320C00106209004018060095
:08132600406509005189060031
:00000001FF
