:1000000045C0000060C000005EC000005CC0000091
:100010005AC0000058C0000056C0000054C0000084
:1000200052C0000050C000004FC000004CC0000093
:100030004AC0000048C0000046C0000044C00000A4
:10004000D4C3000040C000003EC000003CC000001F
:100050003AC0000038C0000036C0000034C00000C4
:1000600032C0000030C000002EC000002CC00000D4
:100070002AC0000028C0000026C0000024C00000E4
:1000800022C0000020C000001EC0000011241FBEBE
:10009000CFEFD0E1DEBFCDBF11E0A0E0B1E0E0E501
:1000A000FAE000E00BBF02C007900D92A437B10741
:1000B000D9F724E0A4E7B1E001C01D92A635B2074C
:1000C000E1F763D0C3C49CCF1F920F920FB60F927B
:1000D00011240BB60F922F933F934F935F936F931F
:1000E0007F938F939F93AF93BF93EF93FF931BD017
:1000F000FF91EF91BF91AF919F918F917F916F9100
:100100005F914F913F912F910F900BBE0F900FBEBB
:100110000F901F90189587B38F6387BB81B3876754
:1001200081BB969A0895969A809174019091750179
:10013000E82FF0E028E0929FE00DF11D112495E0FA
:10014000EE0FFF1F9A95E1F792B3987F8770892B86
:1001500082BBEA5AFD4F9F01205E3F4F819198B3C9
:10016000907C8F73892B88BB949A9498E217F3073D
:10017000A9F7959A959896988091740190E00196C8
:10018000877099278093740108958AB38F608ABB22
:100190008BB38F608BBBBFDF87B7806487BF85B5AC
:1001A000836085BD67D320D37894812C912C540132
:1001B000412C512C320165D36B017C01DC01CB0158
:1001C00084199509A609B7090F97A105B10548F04B
:1001D0008FE0480E511C611C711C89B380958F7093
:1001E000F1D1C818D908EA08FB088CE2C81681E0EA
:1001F000D806E104F104F8F28CE2880E81E0981E42
:10020000A11CB11CCFD2D7CF2091490294E0299FE5
:1002100090011124F901E80FF11D87FDFA95EE0F09
:10022000FF1FEE0FFF1FEC5FFE4F80819181A281C7
:10023000B38104C0B595A795979587956A95D2F730
:1002400083700895AF92BF92CF92DF92EF92FF92A8
:100250000F931F93CF93DF93E42EB22EF12C062F32
:10026000660F110BC82F880FDD0B8AE0A82E6F2DAB
:100270008E2DCADF6801C80ED11C87FDDA9462E0BA
:100280006F0D8E2DC1DFAC9C9001AD9C300D112403
:1002900021583E4F280F311D87FD3A95F901EC0F8B
:1002A000FD1FB08284E0F80E80E1F812E0CFDF910C
:1002B000CF911F910F91FF90EF90DF90CF90BF9063
:1002C000AF90089520E040914A0260914B028091E6
:1002D0004C02B8DF209149022F5F40914D024093BC
:1002E0004A0260914E0260934B0280914F028093CC
:1002F0004C02A8CF8F929F92AF92BF92CF92DF9283
:10030000EF92FF920F931F93CF93DF93E82ED42F9A
:10031000062F660F110B62E1842F76DF9801280FFC
:10032000311D87FD3A95243131050CF03DC0909088
:100330004A02A0904B02B0904C0220E0492D6A2D59
:100340008B2D80DFC0E00E2C000CFF088AE0882E89
:100350006C2F8D2F59DF6801C80ED11C87FDDA94F0
:1003600062E06C0F8D2F50DF8C9C90018D9C300DC6
:10037000112421583E4F2E0D3F1DF901E80FF11DAC
:1003800087FDFA958081811105C0CC5FC03101F7EE
:10039000C0E001C0C1E0209149022F5F492D6A2DC4
:1003A0008B2D50DF8C2F01C081E0DF91CF911F9109
:1003B0000F91FF90EF90DF90CF90BF90AF909F9004
:1003C0008F9008950F931F93CF93DF93C0914E02A8
:1003D0000C2F10E0DAE062E180914D0215DF2C2F46
:1003E00030E0A801480F511D87FD5A954217530769
:1003F000ECF15AE0C59F9001112480E090E0F901F2
:10040000E80FF91FE158FE4F4081442369F101963E
:100410008A309105A1F78FEF8C0F1816E4F4282F7E
:10042000082E000C330BA9014F5F5F4FD49FD00102
:10043000D59FB00D1124A158BE4FD29FF001D39F7C
:10044000F00D1124E158FE4F9D2F01900D929A95C9
:10045000E1F78150E2CF80914702909148020196E6
:100460009093480280934702CF5FB5CFDF91CF9141
:100470001F910F910895CF93DF937DD2EC011092DD
:100480004B0210924E0267E070E007D2809349025F
:10049000CE0164E070E001D280934A0280934D0265
:1004A00060E1B2DE6AE070E0681B710987FD739558
:1004B000CE01F3D180934C0280934F02DF91CF9114
:1004C00008958F929F92AF92BF92CF92DF92EF9258
:1004D000FF920F931F93CF93DF93A0917501B1E02B
:1004E000BA270B2F10E09FE7E92E91E0F92E502F4D
:1004F000442720E030E06A0180E2C81A8EEFD80A73
:1005000063E0000F111F6A95E1F7F601E20FF31F98
:10051000EA5AFD4F9FE0B92E60E070E0E701C60F98
:10052000D71F988187E08B1540F08081C82FC87F46
:10053000892F87708C2B808319C08B2D8770E801E1
:10054000C80FD11D85E0CC0FDD1F8A95E1F7CA5A8F
:10055000DD4FC20FD31F8881877CA82E88E0989F2B
:1005600040011124882D88738A2988836F5F7F4F0B
:10057000BA94B0976A30710589F62F5F3F4F8AE0D1
:10058000E80EF11C2431310509F0BFCFB09375019D
:10059000B0E0BA2FAA27AA5ABD4FFA01EA5AFD4F76
:1005A00080E001900D928A95E1F7DF91CF911F9144
:1005B0000F91FF90EF90DF90CF90BF90AF909F9002
:1005C0008F9008958F929F92AF92BF92CF92DF92B9
:1005D000EF92FF920F931F93CF93DF93D82F8C70DE
:1005E0008C3009F4D37F4D2F4C7080917E0190E0C8
:1005F00080959095242F30E082239323892BB1F0AE
:1006000084EF91E0A0E0B0E080937A0190937B01C9
:10061000A0937C01B0937D0134D1609376017093F7
:10062000770180937801909379013AC0411102C01B
:1006300080E057C026D1C0907601D0907701E0903D
:100640007801F090790180907A0190907B01A090E0
:100650007C01B0907D01AB01BC014C195D096E09B4
:100660007F09481559056A057B0510F3D701C601B6
:10067000880D991DAA1DBB1D80937601909377016B
:10068000A0937801B093790184E690E0A0E0B0E017
:1006900080937A0190937B01A0937C01B0937D01BC
:1006A000C0914F02D2FF06C0CC23D1F0C15040917F
:1006B0004D020EC0F0904D0260E18F2DA5DD082E99
:1006C000000C990B8C0F911D099754F4CF5F4F2D9F
:1006D00060914E028C2F0EDE811102C0C0934F023A
:1006E00081E0E0907E01F12CE094F0940D2F0170F8
:1006F00010E00E211F21012B49F100914D0210E065
:100700000F5F1F4F0370112700934D02C0914F02DE
:1007100060E1802F79DD082E000C990B8C0F911D64
:100720000A9724F0C150C0934F02F0CF402F609140
:100730004E028C2FDFDD882341F080914C028093A4
:100740004F0280914A0280934D0281E02D2F22704A
:1007500030E0E222F322EF2891F0C0914E02CF5F09
:1007600040914D026C2F80914F02C4DD811104C075
:10077000C0934E02A7DDF1CF25DE7DDE02C08823C7
:1007800011F0A0DD9EDED0937E01DF91CF911F910D
:100790000F91FF90EF90DF90CF90BF90AF909F9020
:1007A0008F900895CF93DF93D0914E02C1E0CD0F8B
:1007B00040914D026C2F80914F029CDD882371F097
:1007C000D11109C098E088E10FB6F894A89581BDD1
:1007D0000FBE91BDFFCFF6DD4EDE03C0C0934E02CB
:1007E00071DDDF91CF916DCE46CE1F920F920FB685
:1007F0000F9211242F933F934F935F936F938F9397
:100800009F93AF93BF938091520290915302A09116
:100810005402B091550240915002509151029A01F8
:10082000285E3F4F283E63E0360720F40196A11D65
:10083000B11D06C00296A11DB11D9A01205D334075
:100840008093520290935302A0935402B0935502A6
:100850003093510220935002BF91AF919F918F919D
:100860006F915F914F913F912F910F900FBE0F901D
:100870001F90189583B7846083BF87B7816087BF57
:1008800008952FB7F89460915202709153028091AD
:100890005402909155022FBF089597FB072E16F42E
:1008A000009406D077FD08D00BD007FC05D03EF4AD
:1008B000909581959F4F0895709561957F4F08950C
:1008C000AA1BBB1B51E107C0AA1FBB1FA617B70776
:1008D00010F0A61BB70B881F991F5A95A9F7809592
:1008E0009095BC01CD0108958F929F92AF92BF92D7
:1008F000CF92DF92EF92FF92CF93DF93EC0168816A
:1009000079818A819B81611571058105910521F4A9
:1009100064E279ED8BE597E02DE133EF41E050E0C3
:1009200038D049015A019B01AC01A7EAB1E44DD08E
:100930006B017C01ACEEB4EFA501940152D0DC0157
:10094000CB018C0D9D1DAE1DBF1DB7FF03C00197D0
:10095000A109B04888839983AA83BB839F77DF91DD
:10096000CF91FF90EF90DF90CF90BF90AF909F908E
:100970008F900895B9CF80E091E0B6CFA0E0B0E0CD
:100980008093000190930101A0930201B0930301B1
:100990000895052E97FB16F400940FD057FD05D04F
:1009A00024D007FC02D046F408C0509540953095FD
:1009B00021953F4F4F4F5F4F0895909580957095CB
:1009C00061957F4F8F4F9F4F089531D0A59F900D18
:1009D000B49F900DA49F800D911D11240895B7FF21
:1009E000F4CFF3DF821B930B0895A1E21A2EAA1B0A
:1009F000BB1BFD010DC0AA1FBB1FEE1FFF1FA217CF
:100A0000B307E407F50720F0A21BB30BE40BF50BCB
:100A1000661F771F881F991F1A9469F76095709554
:100A2000809590959B01AC01BD01CF010895A29FD7
:100A3000B001B39FC001A39F700D811D1124911DB2
:100A4000B29F700D811D1124911D0895F894FFCF60
:100A50000100000040950600542109004095060061
:100A600054210900518406001065090051840600D4
:100A70001065090040510500405105004051050036
:100A80004051050054260900109506004021090038
:100A900040980600514906001052090040580600CF
:100AA0005416090040C8030010320C0040C803006F
:100AB00010320C0010620900401806004065090061
:040AC0005189060052
:00000001FF
