:1000000045C0000060C000005EC000005CC0000091
:100010005AC0000058C0000056C0000054C0000084
:1000200052C00000FBC00000D2C000004CC0000065
:100030004AC0000048C0000046C0000044C00000A4
:100040009FC0000040C000003EC000003CC0000057
:100050003AC0000038C0000036C0000034C00000C4
:1000600032C0000030C000002EC000002CC00000D4
:100070002AC0000028C0000026C0000024C00000E4
:1000800022C0000020C000001EC0000011241FBEBE
:10009000CFEFD0E1DEBFCDBF11E0A0E0B1E0E8E1FD
:1000A000FEE000E00BBF02C007900D92A838B10738
:1000B000D9F724E0A8E8B1E001C01D92AB36B20741
:1000C000E1F7C1D1A7C69CCFCF92DF92EF92FF920A
:1000D0000F931F93CF93DF93C82F062FC22ED82ED6
:1000E000D40ED62FD40F8FE0E82ECD1570F4FE2C51
:1000F000F01A102F1D1738F44C2D6C2F8F2DD8D0DF
:100100001F5FFA94F7CFCF5FF0CFDF91CF911F91B0
:100110000F91FF90EF90DF90CF900895BF92CF9214
:10012000DF92EF92FF920F931F93CF93DF93C62E30
:10013000B22EE42FF0E0EE0FFF1FEC5FFE4FE080E9
:10014000F180D82E15E0DC2DC3E0E0FE05C02B2D9C
:10015000402F6D2F8D2DB8DFF694E794C150D00F4E
:10016000C111F3CF1150D00E1111EDCFDF91CF910E
:100170001F910F91FF90EF90DF90CF90BF90089567
:100180001F920F920FB60F9211240BB60F922F935E
:100190003F934F935F936F937F938F939F93AF930F
:1001A000BF93EF93FF9311D5FF91EF91BF91AF9163
:1001B0009F918F917F916F915F914F913F912F917F
:1001C0000F900BBE0F900FBE0F901F9018951F92AF
:1001D0000F920FB60F9211240BB60F922F933F93ED
:1001E0004F935F936F937F938F939F93AF93BF933F
:1001F000EF93FF93A4D0FF91EF91BF91AF919F91A7
:100200008F917F916F915F914F913F912F910F90BF
:100210000BBE0F900FBE0F901F9018951F920F925C
:100220000FB60F9211240BB60F922F933F934F935B
:100230005F936F937F938F939F93AF93BF93EF934E
:10024000FF93ADD0FF91EF91BF91AF919F918F91AF
:100250007F916F915F914F913F912F910F900BBEC6
:100260000F900FBE0F901F9018958AB38F638ABBB3
:1002700084B3876784BBAE9A08959091890181E029
:100280008927809389010895E0918901A1E0AE2733
:10029000B0E0BA2FAA27A657BE4FF0E0FE2FEE27F8
:1002A000E657FE4F80E001900D928A95E1F70895A0
:1002B000E091890170E021E08830A8F49E2F922718
:1002C00028E0929FF0011124E80FF11D35E0EE0FB8
:1002D000FF1F3A95E1F7E657FE4FE60FF71F8081C3
:1002E000887F47701AC0E227282F277038E0E39FE5
:1002F000C0011124820F911D25E0880F991F2A95B6
:10030000E1F786579E4FFC01E60FF71F8081877C3F
:1003100098E0499FA00111244873482B4083089519
:100320002091890191E0292730E0322F2227682F80
:1003300070E040E051E0C90186579E4FFFC4AE9A7D
:100340008091880190918901E82FF0E028E0929F48
:10035000E00DF11D112495E0EE0FFF1F9A95E1F7D6
:1003600095B3987F8770892B85BBE657FE4F9F0119
:10037000205E3F4F81919BB3907C8F73892B8BBB09
:10038000AC9AAC98E217F307A9F7AD9AAD98AE987E
:10039000809188018F5F8770809388010895AE9A5D
:1003A0000895CF92DF92EF92FF921F93CF93DF9346
:1003B0007C01D0E0C701C7E06C012FEFC21AD20A5E
:1003C000C4D4182F482F47706D2F88E08C0F70DF32
:1003D000412F4695469546956D2F8C2F69DFC1506C
:1003E000C601CF3F49F788E0E80EF11CDF5FD0324D
:1003F00009F7DF91CF911F91FF90EF90DF90CF90A1
:1004000008951F93CF93DF93D82FCFE0C81B1FE031
:100410001C1731F046E060E0812F4ADF1150F8CF21
:10042000D03138F440E060E08C2F42DFDF5FC15014
:10043000F7CFDF91CF911F910895369A349BFECF6D
:1004400084B195B10895CF93DF9300D000D0CDB79C
:10045000DEB781B3807F81BB82B38F6082BB05DF53
:1004600087B7806487BF85B5836085BD8AE283BD19
:1004700087B7806887BFD3D33E9A86B1876086B935
:10048000379A87B1807E87B978941FEED6DF8DD3F7
:100490002FEF39E648E1215030404040E1F700C0FD
:1004A000000080E090E07DDF80918A03AADFE5DE36
:1004B000EBDE812C912C5401F0B2F094F0FE05C0DB
:1004C00083B58F3F11F08F5F83BDF1FE05C083B50B
:1004D000823010F0815083BDF2FE1BC0A7D32B01E8
:1004E0003C01DC01CB0188199909AA09BB098639AD
:1004F0009105A105B10568F080918A0390E001960D
:1005000061E170E0B3D380938A037BDFB6DE5301F1
:100510004201F3FC07C08FE39CE90197F1F700C0AB
:100520000000CACF20918A0312036001112494EDC8
:10053000C91A9EEFD90A0D2C000CEE08FF0883E0C3
:10054000B82E80E0EDDE02E027E04B2D65E08BE089
:10055000E5DD93DEAFEFB3ED20E3A150B0402040E6
:10056000E1F700C00000BA94B110EBCF5FD32B01CC
:100570003C013FE0431A5108610871089B01AC013E
:100580002C193D094E095F0929833A834B835C830B
:100590004DD34B015C01DC01CB0184199509A609FF
:1005A000B7090F97A105B10548F03FE0430E511C74
:1005B000611C711C80B380958F70F1D189819A8103
:1005C000AB81BC81881A990AAA0ABB0A8C149D04C3
:1005D000AE04BF04E8F28C0D9D1DAE1DBF1D8983C6
:1005E0009A83AB83BC836FD28111D2CF80E091E03C
:1005F000D8DE83E16AD141DE9FEFA3EDB0E39150F5
:10060000A040B040E1F700C0000080B390E08095CA
:1006100090958F709927892BC1F338CF20915E0474
:1006200094E0299F90011124F901E80FF11D87FD45
:10063000FA95EE0FFF1FEE0FFF1FE85EFE4F808161
:100640009181A281B38104C0B695A79597958795AE
:100650006A95D2F783700895AF92BF92CF92DF92DE
:10066000EF92FF920F931F93CF93DF93E42EB22E5E
:10067000F12C062F660F110BC82F880FDD0B8AE0B7
:10068000A82E6F2D8E2DCADF6801C80ED11C87FDE4
:10069000DA9462E06F0D8E2DC1DFAC9C9001AD9CB1
:1006A000300D11242C563C4F280F311D87FD3A95F3
:1006B000F901EC0FFD1FB08284E0F80E80E1F81222
:1006C000E0CFDF91CF911F910F91FF90EF90DF90DE
:1006D000CF90BF90AF90089520E040915F0460916B
:1006E000600480916104B8DF20915E042F5F409127
:1006F000620440935F04609163046093600480919E
:10070000640480936104A8CF8F929F92AF92BF92AE
:10071000CF92DF92EF92FF920F931F93CF93DF93CD
:10072000E82ED42F062F660F110B62E1842F76DF9F
:100730009801280F311D87FD3A95243131050CF0C1
:100740003DC090905F04A0906004B090610420E0F0
:10075000492D6A2D8B2D80DFC0E00E2C000CFF0888
:100760008AE0882E6C2F8D2F59DF6801C80ED11CAE
:1007700087FDDA9462E06C0F8D2F50DF8C9C900126
:100780008D9C300D11242C563C4F2E0D3F1DF90130
:10079000E80FF11D87FDFA958081811105C0CC5FBE
:1007A000C03101F7C0E001C0C1E020915E042F5FBD
:1007B000492D6A2D8B2D50DF8C2F01C081E0DF91F8
:1007C000CF911F910F91FF90EF90DF90CF90BF904E
:1007D000AF909F908F900895CF93DF93A1D2EC01BB
:1007E000109260041092630467E070E03FD280933F
:1007F0005E04CE0164E070E039D280935F048093A0
:10080000620460E10BDF6AE070E0681B710987FD3C
:100810007395CE012BD28093610480936404DF91A1
:10082000CF910895CF93DF93C0916204843011F487
:10083000CD5F01C0CF5FC370C0936204D0916404E8
:1008400060E18C2FEBDE082E000C990B8D0F911DB3
:100850000A9724F0D150D0936404F0CF4C2F6091CC
:1008600063048D2F51DF882341F0809161048093D0
:10087000640480915F0480936204DF91CF910895B6
:10088000CF93DF93C091640482FF06C0CC23D1F0E4
:10089000C150409162040EC0D091620460E18D2F7E
:1008A000BDDE082E000C990B8C0F911D099754F496
:1008B000CF5F4D2F609163048C2F26DF811102C022
:1008C000C0936404DF91CF910895CF92DF92FF929D
:1008D0000F931F93CF93DF93F82E80915C04909138
:1008E0005D04CDE02AE0C22ED12CB601ABD1162F8B
:1008F000D72F01E021E0482F6C2F8F2D0FDC812FA7
:100900009D2FC450CD3F89F7DF91CF911F910F915B
:10091000FF90DF90CF900895EF92FF920F931F9377
:10092000CF93DF9380E0FCDCCDE047E062E08C2FEA
:10093000BFDC47E067E18C2FBBDCC150C130A9F7B9
:10094000C2E047E06C2F8DE0B3DC47E06C2F82E023
:10095000AFDCCF5FC831A9F784E9E82E83E0F82E39
:10096000D3E0CCE000E010E0F701E00FF11F4081A0
:100970006D2F8C2F9DDC0F5F1F4FC150C230A1F730
:100980008AE0E80EF11CDF5FD73159F789E19DDF7E
:10099000DF91CF911F910F91FF90EF906ECC8F92CE
:1009A0009F92AF92BF92CF92DF92EF92FF921F93EE
:1009B000CF93DF93182F8C708C3009F4137FC12FE5
:1009C000D0E08091930390E0809590958C7099276A
:1009D0008C239D23892BB1F08CE291E0A0E0B0E064
:1009E00080938F0390939003A0939103B09392030D
:1009F0001DD160938B0370938C0380938D03909330
:100A00008E033BC0812F8C7011F420E039C00ED1D1
:100A1000C0908B03D0908C03E0908D03F0908E03F8
:100A200080908F0390909003A0909103B0909203D8
:100A3000AB01BC014C195D096E097F0948155905C8
:100A40006A057B0510F3D701C601880D991DAA1D03
:100A5000BB1D80938B0390938C03A0938D03B09365
:100A60008E038CE390E0A0E0B0E080938F0390933E
:100A70009003A0939103B0939203812F01DF21E0B3
:100A80008091930390E080959095C823D923C0FF6F
:100A900003C088E0C7DE21E0C1FF03C084E0C2DEFE
:100AA00002C0222311F018DE37DF10939303DF9189
:100AB000CF911F91FF90EF90DF90CF90BF90AF90BC
:100AC0009F908F900895FF920F931F93CF93DF9382
:100AD000F0906204C0916304D1E0DC0F4F2D6D2FC4
:100AE0008091640411DE882309F452C0CC2309F4F8
:100AF00055C00C2F10E0DAE062E18F2D8FDD2C2F36
:100B000030E0A801480F511D87FD5A954217530741
:100B1000ECF15AE0C59F9001112480E090E0F901CA
:100B2000E80FF91FEC56FC4F4081442369F1019610
:100B30008A309105A1F78FEF8C0F1816E4F4282F57
:100B4000082E000C330BA9014F5F5F4FD49FD001DB
:100B5000D59FB00D1124AC56BC4FD29FF001D39F4E
:100B6000F00D1124EC56FC4F9D2F01900D929A959B
:100B7000E1F78150E2CF80915C0490915D04019691
:100B800090935D0480935C04CF5FB6CF25DE03C0F5
:100B9000D0936304A1DDC0DE81E001C080E0DF917D
:100BA000CF911F910F91FF900895BDD088ECE4E99B
:100BB000F3E0DF011D928A95E9F70EDE10925D04E5
:100BC00010925C04109293030895809167049091B1
:100BD0006804A0916904B0916A0440916504509141
:100BE00066049A01285E3F4F283E63E0360720F4F2
:100BF0000196A11DB11D06C00296A11DB11D9A014D
:100C0000205D33408093670490936804A093690447
:100C1000B0936A043093660420936504089583B703
:100C2000846083BF87B7816087BF08952FB7F8942A
:100C300060916704709168048091690490916A04DE
:100C40002FBF0895AA1BBB1B51E107C0AA1FBB1FE2
:100C5000A617B70710F0A61BB70B881F991F5A9548
:100C6000A9F780959095BC01CD01089597FB072EBB
:100C700016F4009406D077FD08D0E4DF07FC05D019
:100C80003EF4909581959F4F0895709561957F4FA3
:100C900008958F929F92AF92BF92CF92DF92EF9280
:100CA000FF92CF93DF93EC01688179818A819B81E8
:100CB000611571058105910521F464E279ED8BE5FB
:100CC00097E02DE133EF41E050E047D049015A0170
:100CD0009B01AC01A7EAB1E45CD06B017C01ACEEF6
:100CE000B4EFA501940161D0DC01CB018C0D9D1DF9
:100CF000AE1DBF1DB7FF03C00197A109B04888838F
:100D00009983AA83BB839F77DF91CF91FF90EF9068
:100D1000DF90CF90BF90AF909F908F900895B9CF04
:100D200080E091E0B6CFA0E0B0E080930001909326
:100D30000101A0930201B09303010895DC0101C0F9
:100D40006D9341505040E0F70895E199FECF9FBB6D
:100D50008EBBE09A99278DB30895052E97FB16F464
:100D600000940FD057FD05D024D007FC02D046F4E4
:100D700008C050954095309521953F4F4F4F5F4F9C
:100D8000089590958095709561957F4F8F4F9F4FF7
:100D9000089531D0A59F900DB49F900DA49F800D14
:100DA000911D11240895B7FFF4CFF3DF821B930B3D
:100DB0000895A1E21A2EAA1BBB1BFD010DC0AA1F9C
:100DC000BB1FEE1FFF1FA217B307E407F50720F0B4
:100DD000A21BB30BE40BF50B661F771F881F991F2F
:100DE0001A9469F760957095809590959B01AC0178
:100DF000BD01CF010895A29FB001B39FC001A39F81
:100E0000700D811D1124911DB29F700D811D112443
:080E1000911D0895F894FFCF35
:100E1800010000006F7B9224E773E779ED49CF79F1
:100E2800CF7B2F49EF7BEF794095060054210900CD
:100E380040950600542109005184060010650900F8
:100E48005184060010650900405105004051050015
:100E58004051050040510500542609001095060030
:100E68004021090040980600514906001052090027
:100E7800405806005416090040C8030010320C0000
:100E880040C8030010320C00106209004018060028
:080E98004065090051890600C4
:00000001FF
