:1000000045C0000060C000005EC000005CC0000091
:100010005AC0000058C0000056C0000054C0000084
:1000200052C0000050C000004FC000004CC0000093
:100030004AC0000048C0000046C0000044C00000A4
:1000400020C4000040C000003EC000003CC00000D2
:100050003AC0000038C0000036C0000034C00000C4
:1000600032C0000030C000002EC000002CC00000D4
:100070002AC0000028C0000026C0000024C00000E4
:1000800022C0000020C000001EC0000011241FBEBE
:10009000CFEFD0E1DEBFCDBF11E0A0E0B1E0E8EEF0
:1000A000FAE000E00BBF02C007900D92A838B1073C
:1000B000D9F724E0A8E8B1E001C01D92AA36B20742
:1000C000E1F763D00FC59CCF1F920F920FB60F922E
:1000D00011240BB60F922F933F934F935F936F931F
:1000E0007F938F939F93AF93BF93EF93FF931BD017
:1000F000FF91EF91BF91AF919F918F917F916F9100
:100100005F914F913F912F910F900BBE0F900FBEBB
:100110000F901F90189587B38F6387BB81B3876754
:1001200081BB969A0895969A809188019091890151
:10013000E82FF0E028E0929FE00DF11D112495E0FA
:10014000EE0FFF1F9A95E1F792B3987F8770892B86
:1001500082BBE659FD4F9F01205E3F4F819198B3CE
:10016000907C8F73892B88BB949A9498E217F3073D
:10017000A9F7959A959896988091880190E00196B4
:10018000877099278093880108958AB38F608ABB0E
:100190008BB38F608BBBBFDF87B7806487BF85B5AC
:1001A000836085BDB3D36CD37894812C912C54019A
:1001B000412C512C3201B1D36B017C01DC01CB010C
:1001C00084199509A609B7090F97A105B10548F04B
:1001D0008FE0480E511C611C711C89B380958F7093
:1001E0003DD2C818D908EA08FB088CE2C81681E09D
:1001F000D806E104F104F8F28CE2880E81E0981E42
:10020000A11CB11C1BD3D7CF20915D0294E0299F84
:1002100090011124F901E80FF11D87FDFA95EE0F09
:10022000FF1FEE0FFF1FE85EFE4F80819181A281CC
:10023000B38104C0B595A795979587956A95D2F730
:1002400083700895AF92BF92CF92DF92EF92FF92A8
:100250000F931F93CF93DF93E42EB22EF12C062F32
:10026000660F110BC82F880FDD0B8AE0A82E6F2DAB
:100270008E2DCADF6801C80ED11C87FDDA9462E0BA
:100280006F0D8E2DC1DFAC9C9001AD9C300D112403
:100290002D563E4F280F311D87FD3A95F901EC0F81
:1002A000FD1FB08284E0F80E80E1F812E0CFDF910C
:1002B000CF911F910F91FF90EF90DF90CF90BF9063
:1002C000AF90089520E040915E0260915F028091BE
:1002D0006002B8DF20915D022F5F40916102409380
:1002E0005E026091620260935F028091630280937C
:1002F0006002A8CF8F929F92AF92BF92CF92DF926F
:10030000EF92FF920F931F93CF93DF93E82ED42F9A
:10031000062F660F110B62E1842F76DF9801280FFC
:10032000311D87FD3A95243131050CF03DC0909088
:100330005E02A0905F02B090600220E0492D6A2D1D
:100340008B2D80DFC0E00E2C000CFF088AE0882E89
:100350006C2F8D2F59DF6801C80ED11C87FDDA94F0
:1003600062E06C0F8D2F50DF8C9C90018D9C300DC6
:1003700011242D563E4F2E0D3F1DF901E80FF11DA2
:1003800087FDFA958081811105C0CC5FC03101F7EE
:10039000C0E001C0C1E020915D022F5F492D6A2DB0
:1003A0008B2D50DF8C2F01C081E0DF91CF911F9109
:1003B0000F91FF90EF90DF90CF90BF90AF909F9004
:1003C0008F9008950F931F93CF93DF93C091620294
:1003D0000C2F10E0DAE062E18091610215DF2C2F32
:1003E00030E0A801480F511D87FD5A954217530769
:1003F000ECF15AE0C59F9001112480E090E0F901F2
:10040000E80FF91FED56FE4F4081442369F1019634
:100410008A309105A1F78FEF8C0F1816E4F4282F7E
:10042000082E000C330BA9014F5F5F4FD49FD00102
:10043000D59FB00D1124AD56BE4FD29FF001D39F72
:10044000F00D1124ED56FE4F9D2F01900D929A95BF
:10045000E1F78150E2CF80915B0290915C020196BE
:1004600090935C0280935B02CF5FB5CFDF91CF9119
:100470001F910F910895CF93DF93C9D2EC01109291
:100480005F021092620267E070E067D280935D02C3
:10049000CE0164E070E061D280935E0280936102DD
:1004A00060E1B2DE6AE070E0681B710987FD739558
:1004B000CE0153D28093600280936302DF91CF918B
:1004C0000895E091890170E021E08830A8F49E2F22
:1004D000922728E0929FF0011124E80FF11D35E0EA
:1004E000EE0FFF1F3A95E1F7E659FD4FE60FF71FB4
:1004F0008081887F47701AC0E227282F277038E054
:10050000E39FC0011124820F911D25E0880F991FE0
:100510002A95E1F786599D4FFC01E60FF71F808170
:10052000877C98E0499FA00111244873482B4083A1
:1005300008957F928F929F92AF92BF92CF92DF9257
:10054000EF92FF920F931F93CF93DF93CDE047E09D
:1005500062E08C2FB6DF47E067E18C2FB2DFC1503D
:10056000C130A9F7C2E0D0E011E047E06C2F8DE088
:10057000A8DFE0918901E127F0E0FE2FEE27EC0FE4
:10058000FD1FE655FD4F8081876080832196C8312D
:10059000D10559F743E9E42E41E0F42ED3E0CCE055
:1005A00000E010E0F701E00FF11F40816D2F8C2F6C
:1005B00088DF0F5F1F4FC150C230A1F78AE0E80EFD
:1005C000F11CDF5FD73159F700915B0210915C029B
:1005D000CDE02AE0E22EF12C3FE0C32EC801B701A6
:1005E000A8D1FC01EE0FFF1FEC5FFE4F80809180D1
:1005F000D9E1AC2EB12C82E0A80EB11C7C2C7C1A67
:10060000DC2E8D2D90E0A816B90654F0482D4170CF
:100610006D2F872D56DF96948794D3947A94F1CFDB
:10062000DF5FDE3159F7C801B70183D18B01C450B8
:10063000CD3FA1F69091890181E0892780938901BE
:10064000DF91CF911F910F91FF90EF90DF90CF90AE
:10065000BF90AF909F908F907F9008958F929F92C0
:10066000AF92BF92CF92DF92EF92FF920F931F93C0
:10067000CF93DF93D82F8C708C3009F4D37F4D2F1C
:100680004C708091920190E080959095242F30E0FD
:1006900082239323892BB1F084EF91E0A0E0B0E0B6
:1006A00080938E0190938F01A0939001B09391015C
:1006B00034D160938A0170938B0180938C01909365
:1006C0008D013AC0411102C080E057C026D1C090D0
:1006D0008A01D0908B01E0908C01F0908D01809088
:1006E0008E0190908F01A0909001B0909101AB018C
:1006F000BC014C195D096E097F09481559056A0549
:100700007B0510F3D701C601880D991DAA1DBB1DDD
:1007100080938A0190938B01A0938C01B0938D01FB
:100720008BE490E0A0E0B0E080938E0190938F0185
:10073000A0939001B0939101C0916302D2FF06C0D3
:10074000CC23D1F0C150409161020EC0F090610203
:1007500060E18F2D59DD082E000C990B8C0F911D37
:10076000099754F4CF5F4F2D609162028C2FC2DD48
:10077000811102C0C093630281E0E0909201F12CEC
:10078000E094F0940D2F017010E00E211F21012B39
:1007900049F10091610210E00F5F1F4F03701127B4
:1007A00000936102C091630260E1802F2DDD082E6D
:1007B000000C990B8C0F911D0A9724F0C150C09327
:1007C0006302F0CF402F609162028C2F93DD88236B
:1007D00041F0809160028093630280915E02809379
:1007E000610281E02D2F227030E0E222F322EF2817
:1007F00091F0C0916202CF5F409161026C2F8091B5
:10080000630278DD811104C0C09362025BDDF1CF29
:10081000D9DD31DE02C0882311F054DD8ADED093A9
:100820009201DF91CF911F910F91FF90EF90DF9098
:10083000CF90BF90AF909F908F900895CF93DF930C
:10084000D0916202C1E0CD0F409161026C2F809186
:10085000630250DD882371F0D11109C098E088E16E
:100860000FB6F894A89581BD0FBE91BDFFCFAADD4C
:1008700002DE03C0C093620225DDDF91CF9159CE25
:10088000FACD1F920F920FB60F9211242F933F9320
:100890004F935F936F938F939F93AF93BF93809189
:1008A000660290916702A0916802B091690240913E
:1008B0006402509165029A01285E3F4F283E63E032
:1008C000360720F40196A11DB11D06C00296A11D98
:1008D000B11D9A01205D33408093660290936702B8
:1008E000A0936802B093690230936502209364027A
:1008F000BF91AF919F918F916F915F914F913F9178
:100900002F910F900FBE0F901F90189583B78460A2
:1009100083BF87B7816087BF08952FB7F894609130
:1009200066027091670280916802909169022FBF00
:100930000895AA1BBB1B51E107C0AA1FBB1FA61726
:10094000B70710F0A61BB70B881F991F5A95A9F778
:1009500080959095BC01CD01089597FB072E16F464
:10096000009406D077FD08D0E4DF07FC05D03EF404
:10097000909581959F4F0895709561957F4F08954B
:100980008F929F92AF92BF92CF92DF92EF92FF929F
:10099000CF93DF93EC01688179818A819B81611516
:1009A00071058105910521F464E279ED8BE597E00D
:1009B0002DE133EF41E050E038D049015A019B016D
:1009C000AC01A7EAB1E44DD06B017C01ACEEB4EF11
:1009D000A501940152D0DC01CB018C0D9D1DAE1DF3
:1009E000BF1DB7FF03C00197A109B0488883998351
:1009F000AA83BB839F77DF91CF91FF90EF90DF9029
:100A0000CF90BF90AF909F908F900895B9CF80E026
:100A100091E0B6CFA0E0B0E0809300019093010197
:100A2000A0930201B09303010895052E97FB16F4DD
:100A300000940FD057FD05D024D007FC02D046F417
:100A400008C050954095309521953F4F4F4F5F4FCF
:100A5000089590958095709561957F4F8F4F9F4F2A
:100A6000089531D0A59F900DB49F900DA49F800D47
:100A7000911D11240895B7FFF4CFF3DF821B930B70
:100A80000895A1E21A2EAA1BBB1BFD010DC0AA1FCF
:100A9000BB1FEE1FFF1FA217B307E407F50720F0E7
:100AA000A21BB30BE40BF50B661F771F881F991F62
:100AB0001A9469F760957095809590959B01AC01AB
:100AC000BD01CF010895A29FB001B39FC001A39FB4
:100AD000700D811D1124911DB29F700D811D112477
:080AE000911D0895F894FFCF69
:100AE800010000006F7B2449E773E779ED49CF796E
:100AF800CF7B2F49EF7BEF79409506005421090001
:100B0800409506005421090051840600106509002B
:100B18005184060010650900405105004051050048
:100B28004051050040510500542609001095060063
:100B3800402109004098060051490600105209005A
:100B4800405806005416090040C8030010320C0033
:100B580040C8030010320C0010620900401806005B
:080B68004065090051890600F7
:00000001FF
