:1000000045C1000060C100005EC100005CC100008D
:100010005AC1000058C1000056C1000054C1000080
:1000200052C1000029C2000000C200004CC1000003
:100030004AC1000048C1000046C1000044C10000A0
:10004000CDC1000040C100003EC100003CC1000025
:100050003AC1000038C1000036C1000034C10000C0
:1000600032C1000030C100002EC100002CC10000D0
:100070002AC1000028C1000026C1000024C10000E0
:1000800022C1000020C100001EC1000000000000CD
:100090000000000000000000000000000000000060
:1000A000000000003838011919180007000000018D
:1000B0001800000738380001180000070000000190
:1000C0001800000738380001180000070000000081
:1000D000000000003030022A2A28000630000228E2
:1000E000000200003000022A2A280000300002002E
:1000F0000228000030300228282A000600000000F4
:1001000000000000000000000000000000000000EF
:1001100000000000000000000000000000000000DF
:1001200000000000000000000000000000000000CF
:10013000000000000000100000000030000010115E
:100140003900003003232017393938352B23282F65
:100150002F0F0D350C26162E26220A090C0C14150D
:10016000223A3B3B2929291525391B1B3B2B2125ED
:1001700009111F1F1B1B270A091517241F1F270AF8
:100180001A1D1524363636361A1D24243F3F3F3FAC
:100190003F3F3F3F3F0939093F0F090F3F090F0F0D
:1001A0003F093F393F093F093F090F093F093F090F
:1001B0003F0939393F0939093F090F093F3F3F3F9F
:1001C0003F3F3F3F0F090F3F090F093F093F393FAD
:1001D000093F390F090F093F090F093F093F393F0F
:1001E000093F093F0F090F3F0F393F0F3F3F3F3F87
:1001F0003F3F3F3F00000000000000000000000003
:1002000000000000000000000000000000000000EE
:1002100000000000000000000000000000000000DE
:1002200000000000000000000000000000000000CE
:1002300000000000000000000000000000000000BE
:1002400000000000000000000000000000000000AE
:10025000000000000000000000000000000000009E
:10026000000000000000000000000000000000008E
:10027000000000000000000000000000000000007E
:1002800000000000000000000000000011241FBE5C
:10029000CFEFD0E1DEBFCDBF11E0A0E0B1E0E2E101
:1002A000F0E100E00BBF02C007900D92A838B10743
:1002B000D9F724E0A8E8B1E001C01D92AB36B2073F
:1002C000E1F7C6D1A4C69CCECF92DF92EF92FF9207
:1002D0000F931F93CF93DF93C82F062FC22ED82ED4
:1002E000D40ED62FD40F8FE0E82ECD1570F4FE2C4F
:1002F000F01A102F1D1738F44C2D6C2F8F2D06D1AE
:100300001F5FFA94F7CFCF5FF0CFDF91CF911F91AE
:100310000F91FF90EF90DF90CF900895BF92CF9212
:10032000DF92EF92FF920F931F93CF93DF93C62E2E
:10033000B22EE42FF0E0EE0FFF1FEC5FFE4FE080E7
:10034000F180D82E15E0DC2DC3E0E0FE05C02B2D9A
:10035000402F6D2F8D2DB8DFF694E794C150D00F4C
:10036000C111F3CF1150D00E1111EDCFDF91CF910C
:100370001F910F91FF90EF90DF90CF90BF90089565
:10038000CF92DF92EF92FF921F93CF93DF936C0196
:10039000D0E07601C7E0F7011491412F47706D2F2F
:1003A00088E08C0FB3D0412F4695469546956D2F2A
:1003B0008C2FACD0C150C70101967C01CF3F59F7BB
:1003C00098E0C90ED11CDF5FD03219F7DF91CF91D1
:1003D0001F91FF90EF90DF90CF9008951F920F92A2
:1003E0000FB60F9211240BB60F922F933F934F939A
:1003F0005F936F937F938F939F93AF93BF93EF938D
:10040000FF93E8D4FF91EF91BF91AF919F918F91AE
:100410007F916F915F914F913F912F910F900BBE04
:100420000F900FBE0F901F9018951F920F920FB64E
:100430000F9211240BB60F922F933F934F935F931C
:100440006F937F938F939F93AF93BF93EF93FF939C
:10045000ABD0FF91EF91BF91AF919F918F917F9121
:100460006F915F914F913F912F910F900BBE0F9025
:100470000FBE0F901F9018951F920F920FB60F92FC
:1004800011240BB60F922F933F934F935F936F936B
:100490007F938F939F93AF93BF93EF93FF93B4D0CA
:1004A000FF91EF91BF91AF919F918F917F916F914C
:1004B0005F914F913F912F910F900BBE0F900FBE08
:1004C0000F901F9018958AB38F638ABB84B3876798
:1004D00084BBAE9A08959091890181E08927809329
:1004E00089010895E0918901A1E0AE27B0E0BA2F1B
:1004F000AA27A657BE4FF0E0FE2FEE27E657FE4F85
:1005000080E001900D928A95E1F70895E0918901CC
:1005100070E021E08830A8F49E2F922728E0929F77
:10052000F0011124E80FF11D35E0EE0FFF1F3A95A1
:10053000E1F7E657FE4FE60FF71F8081887F47708F
:100540001AC0E227282F277038E0E39FC00111244A
:10055000820F911D25E0880F991F2A95E1F7865794
:100560009E4FFC01E60FF71F8081877C98E0499F32
:10057000A00111244873482B40830895682F6770A9
:100580002091890191E0292730E0922F882728E0E7
:10059000629FA0011124642B062E000C770B40E013
:1005A00051E086579E4FCFC480918901E091880128
:1005B000F0E098E0899FE00DF11D112485E0EE0F39
:1005C000FF1F8A95E1F7E657FE4F9F01205E3F4FE0
:1005D00091918BB3807C892B8BBBAC9AAC98E21742
:1005E000F307B1F7AE9AAD9AAD9885B390918801B3
:1005F0009770887F892B85BBAE98809188018F5F2B
:100600008770809388010895AE9A08951F93CF93C1
:10061000DF93D82FCFE0C81B1FE01C1731F046E056
:1006200060E0812F73DF1150F8CFD03138F440E013
:1006300060E08C2F6BDFDF5FC150F7CFDF91CF9190
:100640001F910895369A349BFECF84B195B10895D9
:10065000CF93DF9300D000D0CDB7DEB781B3807FDA
:1006600081BB82B38F6082BB2EDF87B7806487BF78
:1006700085B5836085BD8AE283BD87B7806887BF03
:10068000D3D33E9A86B1876086B9379A87B1807E88
:1006900087B9D8DF4DD4789481E1282E312C8BD3C3
:1006A0002FEF39E648E1215030404040E1F700C0EB
:1006B00000008CE890E064DE80918A03A7DF0BDF06
:1006C00011DFC12CD12C760110B3109510FF05C09D
:1006D00083B58F3F11F08F5F83BD11FF05C083B5D8
:1006E000823010F0815083BD12FF1AC0A4D34B0199
:1006F0005C01DC01CB018C199D09AE09BF0986396B
:100700009105A105B10560F080918A0390E0019602
:10071000B101B1D380938A0379DFDDDE7501640115
:1007200013FD07C08FE39CE90197F1F700C00000BB
:10073000CBCF20918A033FEE32036001112444EDB8
:10074000C41A4EEFD40A0D2C000CEE08FF0813E07B
:1007500080E014DF02E027E0412F65E08BE0DEDD82
:10076000BADE5FEF83ED90E3515080409040E1F7B7
:1007700000C00000115061F75ED39B01AC012F5007
:1007800031094109510929833A834B835C834B0129
:100790005C018C189D08AE08BF084DD32B013C01AD
:1007A00080B38095282F2F702117A1F0B301A201EB
:1007B00089819A81AB81BC81481B590B6A0B7B0BE9
:1007C0004F3051056105710528F0122F49825A8278
:1007D0006B827C82812FE9D1481859086A087B080E
:1007E0004C145D046E047F04C0F28C0C9D1CAE1C86
:1007F000BF1C6FD28111D1CF8CE891E0C1DD83E1C4
:100800006AD169DE9FEFA9E6B8E19150A040B040FF
:10081000E1F700C0000080B390E0809590958F7064
:100820009927892BC1F33BCF20915E0494E0299F47
:1008300090011124F901E80FF11D87FDFA95EE0FE3
:10084000FF1FEE0FFF1FE85EFE4F80819181A281A6
:10085000B38104C0B695A795979587956A95D2F709
:1008600083700895AF92BF92CF92DF92EF92FF9282
:100870000F931F93CF93DF93E42EB22EF12C062F0C
:10088000660F110BC82F880FDD0B8AE0A82E6F2D85
:100890008E2DCADF6801C80ED11C87FDDA9462E094
:1008A0006F0D8E2DC1DFAC9C9001AD9C300D1124DD
:1008B0002C563C4F280F311D87FD3A95F901EC0F5E
:1008C000FD1FB08284E0F80E80E1F812E0CFDF91E6
:1008D000CF911F910F91FF90EF90DF90CF90BF903D
:1008E000AF90089520E040915F0460916004809192
:1008F0006104B8DF20915E042F5F40916204409351
:100900005F04609163046093600480916404809349
:100910006104A8CF8F929F92AF92BF92CF92DF9245
:10092000EF92FF920F931F93CF93DF93E82ED42F74
:10093000062F660F110B62E1842F76DF9801280FD6
:10094000311D87FD3A95243131050CF03DC0909062
:100950005F04A0906004B090610420E0492D6A2DEE
:100960008B2D80DFC0E00E2C000CFF088AE0882E63
:100970006C2F8D2F59DF6801C80ED11C87FDDA94CA
:1009800062E06C0F8D2F50DF8C9C90018D9C300DA0
:1009900011242C563C4F2E0D3F1DF901E80FF11D7F
:1009A00087FDFA958081811105C0CC5FC03101F7C8
:1009B000C0E001C0C1E020915E042F5F492D6A2D87
:1009C0008B2D50DF8C2F01C081E0DF91CF911F91E3
:1009D0000F91FF90EF90DF90CF90BF90AF909F90DE
:1009E0008F900895CF93DF93A0D2EC011092600412
:1009F0001092630467E070E03ED280935E04CE0103
:100A000064E070E038D280935F048093620460E118
:100A10000BDF6AE070E0681B710987FD7395CE01FA
:100A20002AD28093610480936404DF91CF9108956A
:100A3000CF93DF93C0916204843011F4CD5F01C085
:100A4000CF5FC370C0936204D091640460E18C2FC7
:100A5000EBDE082E000C990B8D0F911D0A9724F0E8
:100A6000D150D0936404F0CF4C2F609163048D2F4C
:100A700051DF882341F08091610480936404809168
:100A80005F0480936204DF91CF910895CF93DF9349
:100A9000C091640482FF06C0CC23D1F0C1504091C4
:100AA00062040EC0D091620460E18D2FBDDE082E7D
:100AB000000C990B8C0F911D099754F4CF5F4D2FAB
:100AC000609163048C2F26DF811102C0C0936404FF
:100AD000DF91CF910895CF92DF92FF920F931F93F2
:100AE000CF93DF93F82E80915C0490915D04CDE06C
:100AF0002AE0C22ED12CB601AAD1162FD72F01E0A1
:100B000021E0482F6C2F8F2D09DC812F9D2FC450A1
:100B1000CD3F89F7DF91CF911F910F91FF90DF902B
:100B2000CF900895EF92FF920F931F93CF93DF938F
:100B300080E024DDCDE047E062E08C2FE7DC47E099
:100B400067E18C2FE3DCC150C130A9F7C2E047E078
:100B50006C2F8DE0DBDC47E06C2F82E0D7DCCF5FD1
:100B6000C831A9F784E9E82E83E0F82ED3E0CCE081
:100B700000E010E0F701E00FF11F40816D2F8C2F96
:100B8000C5DC0F5F1F4FC150C230A1F78AE0E80EED
:100B9000F11CDF5FD73159F789E19DDFDF91CF91FC
:100BA0001F910F91FF90EF9096CC8F929F92AF92F2
:100BB000BF92CF92DF92EF92FF921F93CF93DF937A
:100BC000182F8C708C3009F4137FC12FD0E08091E6
:100BD000930390E0809590958C7099278C239D23AA
:100BE000892BB1F088EC90E0A0E0B0E080938F0317
:100BF00090939003A0939103B09392031CD16093C0
:100C00008B0370938C0380938D0390938E033BC072
:100C1000812F8C7011F420E039C00DD1C0908B036E
:100C2000D0908C03E0908D03F0908E0380908F0322
:100C300090909003A0909103B0909203AB01BC01FF
:100C40004C195D096E097F09481559056A057B0530
:100C500010F3D701C601880D991DAA1DBB1D8093F5
:100C60008B0390938C03A0938D03B0938E0383E248
:100C700090E0A0E0B0E080938F0390939003A09366
:100C80009103B0939203812F01DF21E080919303C0
:100C900090E080959095C823D923C0FF03C088E0D9
:100CA000C7DE21E0C1FF03C084E0C2DE02C0222310
:100CB00011F018DE37DF10939303DF91CF911F916E
:100CC000FF90EF90DF90CF90BF90AF909F908F906C
:100CD0000895FF920F931F93CF93DF93F0906204D8
:100CE000C0916304D1E0DC0F4F2D6D2F809164041F
:100CF00011DE882309F452C0CC2309F455C00C2F0F
:100D000010E0DAE062E18F2D8FDD2C2F30E0A801BA
:100D1000480F511D87FD5A9542175307ECF15AE0D1
:100D2000C59F9001112480E090E0F901E80FF91FC0
:100D3000EC56FC4F4081442369F101968A309105BD
:100D4000A1F78FEF8C0F1816E4F4282F082E000C53
:100D5000330BA9014F5F5F4FD49FD001D59FB00DDA
:100D60001124AC56BC4FD29FF001D39FF00D11243B
:100D7000EC56FC4F9D2F01900D929A95E1F7815012
:100D8000E2CF80915C0490915D04019690935D04A4
:100D900080935C04CF5FB6CF25DE03C0D09363049D
:100DA000A1DDC0DE81E001C080E0DF91CF911F9125
:100DB0000F91FF90089588ECE4E9F3E0DF011D92C4
:100DC0008A95E9F70FDE10925D0410925C04109290
:100DD000930308958091670490916804A091690439
:100DE000B0916A0440916504509166049A01285EAE
:100DF0003F4F283E63E0360720F40196A11DB11D48
:100E000006C00296A11DB11D9A01205D334080935A
:100E1000670490936804A0936904B0936A043093C4
:100E2000660420936504089583B7846083BF87B701
:100E3000816087BF08952FB7F8946091670470911F
:100E400068048091690490916A042FBF0895AA1BD9
:100E5000BB1B51E107C0AA1FBB1FA617B70710F0A5
:100E6000A61BB70B881F991F5A95A9F780959095D7
:100E7000BC01CD01089597FB072E16F4009406D00F
:100E800077FD08D0E4DF07FC05D03EF4909581950E
:100E90009F4F0895709561957F4F08958F929F920F
:100EA000AF92BF92CF92DF92EF92FF92CF93DF93F8
:100EB000EC01688179818A819B81611571058105C9
:100EC000910521F464E279ED8BE597E02DE133EFB4
:100ED00041E050E03FD049015A019B01AC01A7EA33
:100EE000B1E454D06B017C01ACEEB4EFA5019401E8
:100EF00059D0DC01CB018C0D9D1DAE1DBF1DB7FF70
:100F000003C00197A109B04888839983AA83BB8352
:100F10009F77DF91CF91FF90EF90DF90CF90BF90C0
:100F2000AF909F908F900895B9CF80E091E0B6CFB9
:100F3000A0E0B0E08093000190930101A093020132
:100F4000B09303010895DC0101C06D9341505040FE
:100F5000E0F70895052E97FB16F400940FD057FD87
:100F600005D024D007FC02D046F408C05095409527
:100F7000309521953F4F4F4F5F4F08959095809545
:100F8000709561957F4F8F4F9F4F089531D0A59FEA
:100F9000900DB49F900DA49F800D911D1124089574
:100FA000B7FFF4CFF3DF821B930B0895A1E21A2E53
:100FB000AA1BBB1BFD010DC0AA1FBB1FEE1FFF1FFD
:100FC000A217B307E407F50720F0A21BB30BE40B4D
:100FD000F50B661F771F881F991F1A9469F7609594
:100FE0007095809590959B01AC01BD01CF0108954E
:100FF000A29FB001B39FC001A39F700D811D11245A
:10100000911DB29F700D811D1124911D0895F894BA
:02101000FFCF10
:10101200010000006F7B9224E773E779ED49CF79F5
:10102200CF7B2F49EF7BEF794095060054210900D1
:1010320040950600542109005184060010650900FC
:101042005184060010650900405105004051050019
:101052004051050040510500542609001095060034
:10106200402109004098060051490600105209002B
:10107200405806005416090040C8030010320C0004
:1010820040C8030010320C0010620900401806002C
:081092004065090051890600C8
:00000001FF
