S01600004C45444D617472697831367833322E7372656380
S113000045C0000060C000005EC000005CC000008D
S11300105AC0000058C0000056C0000054C0000080
S113002052C0000050C000004FC000004CC000008F
S11300304AC0000048C0000046C0000044C00000A0
S11300404AC4000040C000003EC000003CC00000A4
S11300503AC0000038C0000036C0000034C00000C0
S113006032C0000030C000002EC000002CC00000D0
S11300702AC0000028C0000026C0000024C00000E0
S113008022C0000020C000001EC0000011241FBEBA
S1130090CFEFD0E1DEBFCDBF11E0A0E0B1E0ECE3F3
S11300A0FBE000E00BBF02C007900D92A437B1073C
S11300B0D9F725E0A4E7B1E001C01D92AE3BB20739
S11300C0E1F7AAD339C59CCF1F920F920FB60F92B6
S11300D011240BB60F922F933F934F935F936F931B
S11300E07F938F939F93AF93BF93EF93FF931BD013
S11300F0FF91EF91BF91AF919F918F917F916F91FC
S11301005F914F913F912F910F900BBE0F900FBEB7
S11301100F901F90189587B38F6387BB81B3876750
S113012081BB969A0895969A8091740190E2899F72
S1130130F001112492B3987F8770892B82BBE2541B
S1130140FB4F9F01205E3F4F819198B3907C8F734A
S1130150892B88BB949A9498E217F307A9F7959A88
S1130160959896988091740190E0019687709927EC
S11301708093740108952091A2043091A304220F66
S1130180331F220F331FF901E80FF11D87FDFA9584
S1130190EE0FFF1FEE0FFF1FEC5FFE4F808191817A
S11301A0A281B38104C0B595A795979587956A9563
S11301B0D2F7837008951F93CF93DF93C2E8D1E001
S11301C040E050E0FA01E254FB4F60E070E020E0D0
S11301D0DE01A60FB71F9C91283044F48081382F8C
S11301E0387F892F8770832B808314C0822F877078
S11301F0DA0110E2819FA00DB11D1124A254BB4F5E
S11302008C91382F377C18E0919FC001112488739A
S1130210832B8C932F5F6C5F7F4FB0962A30C1F68F
S11302204F5F5F4FA8964431510561F6DF91CF913E
S11302301F9108957F928F929F92AF92BF92CF9217
S1130240DF92EF92FF920F931F93CF93DF93842E4D
S1130250912C062F660F110BC82F880FDD0B9AE027
S1130260792EC22E220FDD08EE08FF08692D882D95
S113027082DF5801A80EB11C87FDBA9462E0690DB3
S1130280882D79DF7A9CF0017B9CF00D11249E016E
S1130290280F311D87FD3A95E20FF31FEE0FFF1F64
S11302A0EE0FFF1FEE57FE4FC082D182E282F3822F
S11302B034E0930E80E19812D9CFDF91CF911F9152
S11302C00F91FF90EF90DF90CF90BF90AF909F90F1
S11302D08F907F900895CF92DF92EF92FF9220E06B
S11302E04091A6046091AA048091AE04A3DF2091FA
S11302F0A2042F5F4091B2043091B3049091B404EE
S11303008091B5044093A6043093A7049093A80465
S11303108093A9046091B604862F062E000C990BD5
S1130320AA0BBB0B8093AA049093AB04A093AC04D8
S1130330B093AD048091B704C82E082E000CDD08DC
S1130340EE08FF08C092AE04D092AF04E092B0046D
S1130350F092B104FF90EF90DF90CF906BCF8F922B
S11303609F92AF92BF92CF92DF92EF92FF920F9340
S11303701F93CF93DF93E82ED42F062F660F110B14
S113038062E1842FF8DE9801280F311D87FD3A952C
S1130390243131050CF049C09090A604C090AA0401
S11303A0D090AE0420E0492D6C2D8D2D43DFC0E0AC
S11303B00E2C000CFF089AE0892E6C2F8D2FDBDEAB
S11303C05801A80EB11C87FDBA9462E06C0F8D2F02
S11303D0D2DE8A9CF0018B9CF00D11249701280F2A
S11303E0311D87FD3A95E20FF31FEE0FFF1FEE0F4D
S11303F0FF1FEE57FE4F80819181A281B381892B2B
S11304008A2B8B2B29F4CC5FC031B9F6C0E001C034
S1130410C1E02091A2042F5F492D6C2D8D2D0ADFA0
S11304206C2F70E080E090E004C061E070E080E058
S113043090E0DF91CF911F910F91FF90EF90DF90AB
S1130440CF90BF90AF909F908F900895DF92EF92DE
S1130450FF920F931F93CF93DF93C091B6040C2F99
S11304600C2E000C110BD8E282E8E82E81E0F82E65
S11304709AE0D92E62E18091B2047DDE9801280FC2
S1130480311D87FD3A958C2F0C2E000C990B2817E3
S113049039070CF451C0E8E2CE029001112480E047
S11304A090E0F901E80FF91FEE57FE4F40815181AA
S11304B062817381452B462B472BE1F104968832E8
S11304C0910579F78FEF8C0F1816E4F4282F082E76
S11304D0000C330BA9014F5F5F4FD49FD001D59F10
S11304E0B00D1124AE57BE4FD29FF001D39FF00D33
S11304F01124EE57FE4F9D2F01900D929A95E1F72E
S11305008150E2CFF7018D2D11928A95E9F7809100
S11305107E0190917F01A0918001B09181010196AB
S1130520A11DB11D80937E0190937F01A093800152
S1130530B0938101CF5F9ECFDF91CF911F910F9137
S1130540FF90EF90DF900895CF93DF93C8D2EC0132
S11305501092AA041092AB041092AC041092AD0451
S11305601092B60467E070E00ED2092E000CAA0BBC
S1130570BB0B8093A2049093A304A093A404B09310
S1130580A504CE0164E070E0FED1AC01990F660BC6
S1130590770B4093A6045093A7046093A804709328
S11305A0A9044093B2045093B3046093B4047093C9
S11305B0B50460E1E0DD6AE070E0681B710987FD65
S11305C07395CE01E0D1AC01990F660B770B409384
S11305D0AE045093AF046093B0047093B10480935D
S11305E0B704DF91CF910895CF92DF92EF92FF92FB
S11305F00F931F93CF93DF93D82F00917D0110E0C9
S113060000951095282F217030E020233123232BCF
S113061009F44DC08091B2049091B304A091B40444
S1130620B091B504BC01CD016F5F7F4F8F4F9F4FD9
S113063024E030E040E050E0B9D1F62EE62E60939D
S1130640B2047093B3048093B4049093B504C0913E
S1130650B70460E18E2D8FDD082E000C990B8C0FF2
S1130660911DC7FD9A950A9724F0C150C093B70411
S1130670EECF4F2D6091B6048C2F71DE672B682B63
S1130680692BB9F08091AE048093B7048091A604DD
S11306909091A704A091A804B091A9048093B204F6
S11306A09093B304A093B404B093B50402C0C0E023
S11306B001C0C1E08D2F827090E008231923012B23
S11306C0A1F0C091B604CF5F4091B2046C2F809129
S11306D0B70445DE672B682B692B21F4C093B6045D
S11306E0FADDEFCFB3DE30DFC1E08D2F8C708C30BC
S11306F009F4D37F4D2F4C7080917D0190E080955B
S11307009095242F30E082239323892BB1F084EF3A
S113071091E0A0E0B0E08093790190937A01A093F6
S11307207B01B0937C0123D16093750170937601B2
S113073080937701909378013AC0442309F45CC014
S113074016D10091750110917601209177013091B5
S11307507801C0907901D0907A01E0907B01F0900B
S11307607C01AB01BC01401B510B620B730B4C159C
S11307705D056E057F0508F43FC0D901C8018C0DE5
S11307809D1DAE1DBF1D8093750190937601A093AE
S11307907701B093780184E690E0A0E0B0E0809324
S11307A0790190937A01A0937B01B0937C01C0916D
S11307B0B704D3FF06C01C1664F5C1504091B204BF
S11307C010C01091B20460E1812FD5DC082E000C1A
S11307D0990B8C0F911DC7FD9A950997D4F4CF5F9F
S11307E0412F6091B6048C2FBADD672B682B692BDF
S11307F081F4C093B7040DC0C1110BC0D0937D0127
S1130800DF91CF911F910F91FF90EF90DF90CF90E8
S1130810089561DDD0DCF2CF8BB38F608BBB8AB3DC
S11308208F608ABB78DC87B7806487BF85B58360B7
S113083085BD96D089DE7894812C912C5401412C6D
S1130840512C320194D06B017C01DC01CB01841961
S11308509509A609B7090F97A105B10548F08FE0DE
S1130860480E511C611C711C89B380958F70BCDECD
S1130870C818D908EA08FB088CE2C81681E0D80633
S1130880E104F104F8F2E090B604FF24F394FE0CC2
S11308904091B2046F2D8091B70461DD672B682B02
S11308A0692B71F0E11009C098E088E10FB6F89463
S11308B0A89581BD0FBE91BDFFCFC8DD45DE03C045
S11308C0F092B60408DD8CE2880E81E0981EA11C2B
S11308D0B11C71DCB7CF1F920F920FB60F92112487
S11308E02F933F934F935F936F938F939F93AF9304
S11308F0BF938091BA049091BB04A091BC04B091C1
S1130900BD044091B8045091B9049A01285E3F4F48
S1130910283E63E0360720F40196A11DB11D06C0F0
S11309200296A11DB11D9A01205D33408093BA0443
S11309309093BB04A093BC04B093BD043093B9045A
S11309402093B804BF91AF919F918F916F915F9164
S11309504F913F912F910F900FBE0F901F901895BC
S113096083B7846083BF87B7816087BF08952FB73B
S1130970F8946091BA047091BB048091BC04909186
S1130980BD042FBF089597FB072E16F4009406D0DC
S113099077FD08D027D007FC05D03EF490958195CB
S11309A09F4F0895709561957F4F0895052E97FB8D
S11309B016F400940FD057FD05D028D007FC02D0C0
S11309C046F408C050954095309521953F4F4F4FC0
S11309D05F4F089590958095709561957F4F8F4FE7
S11309E09F4F0895AA1BBB1B51E107C0AA1FBB1F41
S11309F0A617B70710F0A61BB70B881F991F5A95A7
S1130A00A9F780959095BC01CD010895A1E21A2E15
S1130A10AA1BBB1BFD010DC0AA1FBB1FEE1FFF1F9E
S1130A20A217B307E407F50720F0A21BB30BE40BEE
S1130A30F50B661F771F881F991F1A9469F7609535
S1130A407095809590959B01AC01BD01CF010895EF
S1130A508F929F92AF92BF92CF92DF92EF92FF92CA
S1130A60CF93DF93EC01688179818A819B81611541
S1130A7071058105910521F464E279ED8BE597E038
S1130A802DE133EF41E050E091DF49015A019B0130
S1130A90AC01A7EAB1E431D06B017C01ACEEB4EF58
S1130AA0A501940136D0DC01CB018C0D9D1DAE1D3A
S1130AB0BF1DB7FF03C00197A109B048888399837C
S1130AC0AA83BB839F77DF91CF91FF90EF90DF9054
S1130AD0CF90BF90AF909F908F900895B9CF80E052
S1130AE091E0B6CFA0E0B0E08093000190930101C3
S1130AF0A0930201B093030108950FD0A59F900D18
S1130B00B49F900DA49F800D911D11240895B7FFEB
S1130B10F4CFF3DF821B930B0895A29FB001B39F20
S1130B20C001A39F700D811D1124911DB29F700DF2
S10F0B30811D1124911D0895F894FFCF3D
S1130B3C0100000040950600542109004095060070
S1130B4C54210900518406001065090051840600E3
S1130B5C1065090040510500405105004051050045
S1130B6C4051050054260900109506004021090047
S1130B7C40980600514906001052090040580600DE
S1130B8C5416090040C8030010320C0040C803007E
S1130B9C10320C0010620900401806004065090070
S1070BAC5189060061
S9030000FC
